{
  "_format": "hh-sol-artifact-1",
  "contractName": "WavePortal",
  "sourceName": "contracts/WavePortal.sol",
  "abi": [
    {
      "inputs": [],
      "stateMutability": "payable",
      "type": "constructor"
    },
    {
      "anonymous": false,
      "inputs": [
        {
          "indexed": true,
          "internalType": "address",
          "name": "from",
          "type": "address"
        },
        {
          "indexed": false,
          "internalType": "uint256",
          "name": "timestamp",
          "type": "uint256"
        },
        {
          "indexed": false,
          "internalType": "string",
          "name": "message",
          "type": "string"
        }
      ],
      "name": "newWave",
      "type": "event"
    },
    {
      "inputs": [],
      "name": "getAllWaves",
      "outputs": [
        {
          "components": [
            {
              "internalType": "address",
              "name": "waver",
              "type": "address"
            },
            {
              "internalType": "string",
              "name": "message",
              "type": "string"
            },
            {
              "internalType": "uint256",
              "name": "timestamp",
              "type": "uint256"
            }
          ],
          "internalType": "struct WavePortal.Wave[]",
          "name": "",
          "type": "tuple[]"
        }
      ],
      "stateMutability": "view",
      "type": "function"
    },
    {
      "inputs": [],
      "name": "getTotalWaves",
      "outputs": [
        {
          "internalType": "uint256",
          "name": "",
          "type": "uint256"
        }
      ],
      "stateMutability": "view",
      "type": "function"
    },
    {
      "inputs": [
        {
          "internalType": "address",
          "name": "",
          "type": "address"
        }
      ],
      "name": "lastWavedAt",
      "outputs": [
        {
          "internalType": "uint256",
          "name": "",
          "type": "uint256"
        }
      ],
      "stateMutability": "view",
      "type": "function"
    },
    {
      "inputs": [
        {
          "internalType": "string",
          "name": "_message",
          "type": "string"
        }
      ],
      "name": "wave",
      "outputs": [],
      "stateMutability": "nonpayable",
      "type": "function"
    }
  ],
  "bytecode": "0x60806040526200004f6040518060400160405280601981526020017f436f6e737472756374696f6e206861732068617070656e6564000000000000008152506200005560201b6200064a1760201c565b620001e9565b620000f5816040516024016200006c919062000162565b6040516020818303038152906040527f41304fac000000000000000000000000000000000000000000000000000000007bffffffffffffffffffffffffffffffffffffffffffffffffffffffff19166020820180517bffffffffffffffffffffffffffffffffffffffffffffffffffffffff8381831617835250505050620000f860201b60201c565b50565b60008151905060006a636f6e736f6c652e6c6f679050602083016000808483855afa5050505050565b60006200012e8262000186565b6200013a818562000191565b93506200014c818560208601620001a2565b6200015781620001d8565b840191505092915050565b600060208201905081810360008301526200017e818462000121565b905092915050565b600081519050919050565b600082825260208201905092915050565b60005b83811015620001c2578082015181840152602081019050620001a5565b83811115620001d2576000848401525b50505050565b6000601f19601f8301169050919050565b61123c80620001f96000396000f3fe608060405234801561001057600080fd5b506004361061004c5760003560e01c8063449d46c0146100515780639a2cdc081461006d578063a42a46631461008b578063bd43a908146100bb575b600080fd5b61006b60048036038101906100669190610a2c565b6100d9565b005b6100756104d8565b6040516100829190610dde565b60405180910390f35b6100a560048036038101906100a09190610a03565b6104e1565b6040516100b29190610dde565b60405180910390f35b6100c36104f9565b6040516100d09190610c95565b60405180910390f35b42610384600360003373ffffffffffffffffffffffffffffffffffffffff1673ffffffffffffffffffffffffffffffffffffffff168152602001908152602001600020546101279190610ef0565b10610167576040517f08c379a000000000000000000000000000000000000000000000000000000000815260040161015e90610d9e565b60405180910390fd5b42600360003373ffffffffffffffffffffffffffffffffffffffff1673ffffffffffffffffffffffffffffffffffffffff1681526020019081526020016000208190555060016000808282546101bd9190610ef0565b925050819055506102046040518060400160405280601a81526020017f25732068617320776176656420772f206d65737361676520257300000000000081525033836106e3565b600260405180606001604052803373ffffffffffffffffffffffffffffffffffffffff16815260200183815260200142815250908060018154018082558091505060019003906000526020600020906003020160009091909190915060008201518160000160006101000a81548173ffffffffffffffffffffffffffffffffffffffff021916908373ffffffffffffffffffffffffffffffffffffffff16021790555060208201518160010190805190602001906102c39291906108e3565b506040820151816002015550503373ffffffffffffffffffffffffffffffffffffffff167f827fc0b1433d32e3710239670a4c525416496a64d64f2374a5e4ea595c0738c64283604051610318929190610df9565b60405180910390a26000606460015442446103339190610ef0565b61033d9190610ef0565b6103479190611027565b90506103886040518060400160405280601681526020017f52616e646f6d20232067656e6572617465643a2025730000000000000000000081525082610782565b8060018190555060328110156104d4576103d76040518060400160405280600781526020017f257320776f6e21000000000000000000000000000000000000000000000000008152503361081e565b6000655af3107a4000905047811115610425576040517f08c379a000000000000000000000000000000000000000000000000000000000815260040161041c90610d7e565b60405180910390fd5b60003373ffffffffffffffffffffffffffffffffffffffff168260405161044b90610c80565b60006040518083038185875af1925050503d8060008114610488576040519150601f19603f3d011682016040523d82523d6000602084013e61048d565b606091505b50509050806104d1576040517f08c379a00000000000000000000000000000000000000000000000000000000081526004016104c890610dbe565b60405180910390fd5b50505b5050565b60008054905090565b60036020528060005260406000206000915090505481565b60606002805480602002602001604051908101604052809291908181526020016000905b8282101561064157838290600052602060002090600302016040518060600160405290816000820160009054906101000a900473ffffffffffffffffffffffffffffffffffffffff1673ffffffffffffffffffffffffffffffffffffffff1673ffffffffffffffffffffffffffffffffffffffff1681526020016001820180546105a690610fc4565b80601f01602080910402602001604051908101604052809291908181526020018280546105d290610fc4565b801561061f5780601f106105f45761010080835404028352916020019161061f565b820191906000526020600020905b81548152906001019060200180831161060257829003601f168201915b505050505081526020016002820154815250508152602001906001019061051d565b50505050905090565b6106e08160405160240161065e9190610cb7565b6040516020818303038152906040527f41304fac000000000000000000000000000000000000000000000000000000007bffffffffffffffffffffffffffffffffffffffffffffffffffffffff19166020820180517bffffffffffffffffffffffffffffffffffffffffffffffffffffffff83818316178352505050506108ba565b50565b61077d8383836040516024016106fb93929190610d09565b6040516020818303038152906040527fe0e9ad4f000000000000000000000000000000000000000000000000000000007bffffffffffffffffffffffffffffffffffffffffffffffffffffffff19166020820180517bffffffffffffffffffffffffffffffffffffffffffffffffffffffff83818316178352505050506108ba565b505050565b61081a8282604051602401610798929190610d4e565b6040516020818303038152906040527f9710a9d0000000000000000000000000000000000000000000000000000000007bffffffffffffffffffffffffffffffffffffffffffffffffffffffff19166020820180517bffffffffffffffffffffffffffffffffffffffffffffffffffffffff83818316178352505050506108ba565b5050565b6108b68282604051602401610834929190610cd9565b6040516020818303038152906040527f319af333000000000000000000000000000000000000000000000000000000007bffffffffffffffffffffffffffffffffffffffffffffffffffffffff19166020820180517bffffffffffffffffffffffffffffffffffffffffffffffffffffffff83818316178352505050506108ba565b5050565b60008151905060006a636f6e736f6c652e6c6f679050602083016000808483855afa5050505050565b8280546108ef90610fc4565b90600052602060002090601f0160209004810192826109115760008555610958565b82601f1061092a57805160ff1916838001178555610958565b82800160010185558215610958579182015b8281111561095757825182559160200191906001019061093c565b5b5090506109659190610969565b5090565b5b8082111561098257600081600090555060010161096a565b5090565b600061099961099484610e4e565b610e29565b9050828152602081018484840111156109b157600080fd5b6109bc848285610f82565b509392505050565b6000813590506109d3816111ef565b92915050565b600082601f8301126109ea57600080fd5b81356109fa848260208601610986565b91505092915050565b600060208284031215610a1557600080fd5b6000610a23848285016109c4565b91505092915050565b600060208284031215610a3e57600080fd5b600082013567ffffffffffffffff811115610a5857600080fd5b610a64848285016109d9565b91505092915050565b6000610a798383610c12565b905092915050565b610a8a81610f46565b82525050565b610a9981610f46565b82525050565b6000610aaa82610e8f565b610ab48185610eb2565b935083602082028501610ac685610e7f565b8060005b85811015610b025784840389528151610ae38582610a6d565b9450610aee83610ea5565b925060208a01995050600181019050610aca565b50829750879550505050505092915050565b6000610b1f82610e9a565b610b298185610ece565b9350610b39818560208601610f91565b610b4281611114565b840191505092915050565b6000610b5882610e9a565b610b628185610edf565b9350610b72818560208601610f91565b610b7b81611114565b840191505092915050565b6000610b93602683610edf565b9150610b9e82611125565b604082019050919050565b6000610bb6600983610edf565b9150610bc182611174565b602082019050919050565b6000610bd9602783610edf565b9150610be48261119d565b604082019050919050565b6000610bfc600083610ec3565b9150610c07826111ec565b600082019050919050565b6000606083016000830151610c2a6000860182610a81565b5060208301518482036020860152610c428282610b14565b9150506040830151610c576040860182610c62565b508091505092915050565b610c6b81610f78565b82525050565b610c7a81610f78565b82525050565b6000610c8b82610bef565b9150819050919050565b60006020820190508181036000830152610caf8184610a9f565b905092915050565b60006020820190508181036000830152610cd18184610b4d565b905092915050565b60006040820190508181036000830152610cf38185610b4d565b9050610d026020830184610a90565b9392505050565b60006060820190508181036000830152610d238186610b4d565b9050610d326020830185610a90565b8181036040830152610d448184610b4d565b9050949350505050565b60006040820190508181036000830152610d688185610b4d565b9050610d776020830184610c71565b9392505050565b60006020820190508181036000830152610d9781610b86565b9050919050565b60006020820190508181036000830152610db781610ba9565b9050919050565b60006020820190508181036000830152610dd781610bcc565b9050919050565b6000602082019050610df36000830184610c71565b92915050565b6000604082019050610e0e6000830185610c71565b8181036020830152610e208184610b4d565b90509392505050565b6000610e33610e44565b9050610e3f8282610ff6565b919050565b6000604051905090565b600067ffffffffffffffff821115610e6957610e686110e5565b5b610e7282611114565b9050602081019050919050565b6000819050602082019050919050565b600081519050919050565b600081519050919050565b6000602082019050919050565b600082825260208201905092915050565b600081905092915050565b600082825260208201905092915050565b600082825260208201905092915050565b6000610efb82610f78565b9150610f0683610f78565b9250827fffffffffffffffffffffffffffffffffffffffffffffffffffffffffffffffff03821115610f3b57610f3a611058565b5b828201905092915050565b6000610f5182610f58565b9050919050565b600073ffffffffffffffffffffffffffffffffffffffff82169050919050565b6000819050919050565b82818337600083830152505050565b60005b83811015610faf578082015181840152602081019050610f94565b83811115610fbe576000848401525b50505050565b60006002820490506001821680610fdc57607f821691505b60208210811415610ff057610fef6110b6565b5b50919050565b610fff82611114565b810181811067ffffffffffffffff8211171561101e5761101d6110e5565b5b80604052505050565b600061103282610f78565b915061103d83610f78565b92508261104d5761104c611087565b5b828206905092915050565b7f4e487b7100000000000000000000000000000000000000000000000000000000600052601160045260246000fd5b7f4e487b7100000000000000000000000000000000000000000000000000000000600052601260045260246000fd5b7f4e487b7100000000000000000000000000000000000000000000000000000000600052602260045260246000fd5b7f4e487b7100000000000000000000000000000000000000000000000000000000600052604160045260246000fd5b6000601f19601f8301169050919050565b7f5468697320636f6e74726163742072616e206f7574206f66206d6f6e65792c2060008201527f736f7272792e0000000000000000000000000000000000000000000000000000602082015250565b7f576169742031352b6d0000000000000000000000000000000000000000000000600082015250565b7f4661696c656420746f207769746864726177206d6f6e65792066726f6d20636f60008201527f6e74726163742e00000000000000000000000000000000000000000000000000602082015250565b50565b6111f881610f46565b811461120357600080fd5b5056fea26469706673582212208b1ea11b4934b9bc7f58734faffea9f86697f1c59bcde5cb8693c808521d520064736f6c63430008040033",
  "linkReferences": {},
  "deployedLinkReferences": {}
}